:020000040800F2
:10000000002000206518000861140008651400082D
:10001000691400086D140008711400080000000045
:10002000000000000000000000000000751400083F
:1000300079140008000000007D14000881140008F5
:10004000BF180008C1180008C3180008C518000828
:10005000C7180008C9180008E908000825090008A1
:100060004509000889090008C5090008D5180008D5
:10007000D7180008D9180008DB180008DD18000898
:10008000DF180008E1180008E3180008000000006D
:10009000000000000000000000000000E51800085B
:1000A000E7180008E9180008EB180008ED18000828
:1000B000C915000809160008F3180008F51800080B
:1000C000F7180008F9180008FB180008FD180008C8
:1000D000FF18000801190008031900080519000895
:1000E00007190008091900080B1900080000000092
:1000F0000000000000000000000000000000000000
:1001000000000000000000000000000000000000EF
:1001100000000000000000000D1900080F19000881
:1001200010B5054C237833B9044B13B10448AFF331
:1001300000800123237010BDB800002000000000E3
:10014000DC1A000808B5064B1BB106480649AFF398
:1001500000800648036813B1054B03B1984708BDFA
:1001600000000000DC1A0008BC000020B8000020DD
:1001700000000000154B002B08BF134B9D46A3F554
:10018000803A00218B460F461348144A121A01F098
:100190007BFC0F4B002B00D098470E4B002B00D060
:1001A00098470020002104000D000D48002802D0CF
:1001B0000C48AFF3008001F041FC2000290000F062
:1001C0002BFA01F027FC00BF0000080000200020EF
:1001D0000000000000000000B80000208E01002098
:1001E00000000000000000004FF4005340F2231113
:1001F00048F6AB12C4F20203C4F26751CCF6EF52D8
:1002000059605A60704700BF4FF40053C4F20203B4
:100210001A6942F080021A61704700BF4FF4005320
:10022000C4F20203D86070474FF40053C4F20203D3
:10023000DA68D2070BD4DA68500701D5022070477C
:10024000DB6813F0100F0CBF04200320704701205F
:10025000704700BF10B50446FFF7E6FF411E4B4252
:100260004B41002C08BF002363B1FFF7DDFF013CC9
:100270000CBF00230123012814BF002303F0010356
:10028000002BF2D1002C08BF052010BD70B504462C
:100290004FF400500D46FFF7DDFF042800D070BD7D
:1002A0004FF40056C4F2020633694FF4005043F095
:1002B000010333612580FFF7CDFF326941F6FE73FC
:1002C0001340336170BD00BF38B505464FF4302090
:1002D000FFF7C0FF042800D038BD4FF40054C4F22B
:1002E000020423694FF4302043F002032361656167
:1002F000236943F040032361FFF7ACFF226941F615
:10030000FD731340236138BDCB782DE9F00303F072
:100310000F06DB0648BF8B780A8848BF1E4312F0E1
:10032000FF0F27D00768002301254FF00F0803E0D7
:100330000133082B1CD00A8805FA03F42240A2429C
:10034000F6D19C0008FA04F906FA04F491F803C007
:1003500027EA0907BCF1280F47EA040708BF4261F2
:10036000E6D0BCF1480F08BF02610133082BE2D18F
:1003700007600A88FF2A28D94768002301254FF023
:100380000F0803E00133082B1ED00A8803F108048C
:1003900005FA04F42240A242F4D19C0008FA04F9C0
:1003A00006FA04F491F803C027EA0907BCF1280F04
:1003B00004BF426191F803C02743BCF1480F08BF56
:1003C00002610133082BE0D14760BDE8F0037047BC
:1003D000F0B587B00446868801A80D4600F098F86D
:1003E000039A4DF68363C4F21B33A3FB021326F07A
:1003F0003F06980C3604360C87B23E43A68023880D
:1004000048F2A06123F001031B041B0C23802B681E
:10041000C0F201018B4222D85B00B2FBF3F292B230
:1004200001372784032A98BF0422A28323889BB222
:1004300043F0010323802388698923F48163AA8818
:1004400023F002031B040A431B0C13439BB22380BB
:100450002A89AB8913439BB2238107B0F0BDEE8894
:100460004BF6FF718E421DBF03EB830303EB830347
:10047000B2FBF3F203EB43030CBFB2FBF3F242F423
:10048000804292B213051B0D0BB942F001024FF4EA
:10049000967101FB00F044F6D351C1F2620181FB79
:1004A00000318909013142F400422184BDE700BFD7
:1004B000038829B923F001031B041B0C0380704738
:1004C0009BB243F001030380704700BF4FF44053D9
:1004D000C4F20003186070474FF44053C4F20003A5
:1004E000586070474FF44053C4F20003986070475F
:1004F0004FF44053C4F200034AF6AA221A60704730
:100500004FF44053C4F200034CF6CC421A607047DB
:1005100010B44FF48053C4F202035A6802F00C0284
:10052000042A01D0082A28D04FF49052C0F27A024F
:1005300002604FF48053C4F202035C681D49C4F3A7
:1005400003140C5D22FA04F242605C68C4F30224D6
:100550000C5D22FA04F484605C68C4F3C224095D73
:1005600022FA01F2C2605B681349C3F38133CB5CAA
:10057000B2FBF3F2026110BC704759685C68C1F3CA
:1005800083410231E20307D44FF41062C0F23D020E
:1005900002FB01F20260CCE7DA6A4FF4905302F0FA
:1005A0000F020132C0F27A03B3FBF2F201FB02F256
:1005B0000260BEE704000020000000204FF48053DA
:1005C000C4F202039A6919B922EA000098617047DF
:1005D00010439861704700BF4FF48053C4F2020388
:1005E000DA6919B922EA0000D86170471043D8616E
:1005F000704700BF08B545F25550FFF767FF03206D
:10060000FFF76AFF40F2CF70FFF76CFFFFF770FF54
:10061000BDE80840FFF774BF10B5FFF7EBFF4FF4DC
:100620008053C4F202031A68194642F480321A60F9
:100630000A684FF480539203C4F20203F8D55A6853
:10064000264C22F003025A605A6842F001025A60B6
:100650005A6822F0F0025A605A6842F090025A60DA
:1006600000F018FE00F056FD00F06AFD00F022FCDC
:1006700000F012FD00F006FF00F054FF01F0BAF8A0
:1006800000F010FA00F02CF800F0FCF800F044FA4A
:10069000208000F049FA60800020014600F08CFBC9
:1006A0000020012100F0CAFA0020012100F084FBA3
:1006B0000121042000F0C2FA00F02EFA00F048F800
:1006C0000820012100F078FB0121052000F0B6FA96
:1006D00000F02AFA00F03CF8FEE700BF0401002019
:1006E00008B500F08BFB40F214010020C2F20001BB
:1006F00000F06CFB40F21C010120C2F2000100F08E
:1007000065FB40F224010220C2F2000100F05EFB12
:1007100040F22C010320C2F2000100F057FB40F22E
:1007200034010420C2F2000100F050FB40F23C0111
:100730000520C2F2000100F049FB40F2440106200E
:10074000C2F2000100F042FBBDE8084000F024BB0B
:10075000F8B548F21F5480EAE072A2EBE072C5F2ED
:10076000EB1444F6D35584FB02C6C1F2620585FB47
:100770000235D3176421C3EB661601FB1626C3EBC3
:10078000A5154FF47A7707FB152746F26761C6F285
:10079000666181FB02CE81FB06C184FB07C4F617AC
:1007A000FF17C3EBAE03C6EBA1011A4EC7EB6414EF
:1007B000303503EB8307184B3034A2EB4707EDB21B
:1007C00032602E2230313037E4B2DA700122302D1F
:1007D0001D705C7099701F715A7109D0002290428F
:1007E0005A711C460EDB204600F0DAFA2046F8BDAE
:1007F0002022302C9A7108D00022DA715C1C00286B
:10080000F1DA013C2D232370EDE7DA7100221A7230
:100810009C1CF4E7E8000020D400002038B5142028
:1008200000F05AF92E22F421772000F0F1FBC820C5
:1008300000F052F9F621772000F0B4FB772000F0A9
:1008400075FB40F21414C2F2000405027720E56142
:1008500000F06CFB6189054323896A1A02FB03F2ED
:10086000B4F91210B4F91430D213C9029B1891FBD9
:10087000F3F3D31803F10800E561A36140F30F100F
:1008800038BD00BF70B54FF40065C4F20105EB68D8
:10089000012043F00403EB60EB68124C23F00403E7
:1008A000EB6000F019F9EB68022043F00403EB6001
:1008B00000F012F97720AA2100F074FB022000F06A
:1008C0000BF904F11606772000F030FB000285B228
:1008D0007720658000F02AFB284324F8020FB442F9
:1008E000F1D170BD120100204FF44063C4F2010346
:1008F0009B680122DB074CBF074B084B1A704FF473
:100900008063C4F201035969054A41F0010159614C
:100910001378013313707047F6000020EC000020BC
:10092000F10000204FF48062C4F20102516940F2EC
:10093000F00341F002015161C2F200031A78013262
:100940001A70704708B54FF44063C4F201039B6806
:10095000012259074CBF094B094B64201A7000F063
:10096000BBF84FF48063C4F201035969054A41F0B2
:100970000401596113780133137008BDF30000209E
:10098000ED000020F40000204FF44063C4F20103A6
:100990009B68012218074CBF074B084B1A704FF495
:1009A0008063C4F201035969054A41F008015961A5
:1009B0001378013313707047F7000020F200002015
:1009C000F500002008B500F085F84FF48062C4F20D
:1009D0000102516940F2EE0341F010015161C2F28F
:1009E00000031A7801321A7008BD00BF70B41249B2
:1009F00002460B78048811480BB903785BB9104D97
:100A000008262E700F4D002303702B700B701846B4
:100A1000148070BC70470B49087828B1084B1978CE
:100A200039B101391970F3E701202418A4B2087014
:100A3000EEE70134A4B2EBE7F7000020F20000205B
:100A40004C000020EF00002070B4124902460B78E1
:100A5000048811480BB903785BB9104D08262E7035
:100A60000F4D002303702B700B701846148070BC60
:100A700070470B49087828B1084B197839B101390A
:100A80001970F3E70120013CA4B20870EEE7013CC5
:100A9000A4B2EBE7F3000020ED0000204D000020A1
:100AA000F80000204FF48053C4F2020399694FF418
:100AB000E84241F004019961D969C4F2000241F0B1
:100AC0000051D961136843F00103136030231361AF
:100AD000704700BF704700BF704700BFF8B51746AA
:100AE00004460D46FFF780FB3520FFF797FB7E1E7F
:100AF0002046FFF7E9FBB6B257B1A31C03EB46064D
:100B00002D1B2046295B0234FFF7C0FBB442F8D10D
:100B1000BDE8F840FFF778BB4FF43043C0F6000360
:100B2000B3F90000704700BF4BF20203C0F60003A8
:100B3000B3F90000704700BF4FF44063C4F20103F3
:100B40004FF073421A614FF400521A614FF4007271
:100B50001A6186B04FF4C8730093009B2BB1009BC1
:100B6000013B0093009B002BF9D14FF44063C4F28A
:100B700001034FF000721A614FF4C8730193019B97
:100B80002BB1019B013B0193019B002BF9D14FF449
:100B90004063C4F201034FF073421A614FF40052F4
:100BA0001A614FF400721A614FF4C8730293029BEA
:100BB0002BB1029B013B0293029B002BF9D14FF416
:100BC0004063C4F201034FF000721A614FF4C8731E
:100BD0000393039B2BB1039B013B0393039B002BCC
:100BE000F9D14FF44063C4F201034FF073421A612C
:100BF0004FF400421A614FF400721A614FF4C87347
:100C00000493049B2BB1049B013B0493049B002B96
:100C1000F9D14FF44063C4F201034FF000721A613E
:100C20004FF4C8730593059B2BB1059B013B0593BE
:100C3000059B002BF9D106B0704700BF4FF440630D
:100C4000C4F201034FF0734284B01A6111B14FF442
:100C500080721A6100F01003DBB233B14FF44063CD
:100C6000C4F201034FF480521A6100F02003DBB29A
:100C700033B14FF44063C4F201034FF400521A61E0
:100C800000F04003DBB233B14FF44063C4F2010320
:100C90004FF480421A61010641BF4FF44063C4F231
:100CA00001034FF400421A614FF44063C4F20103A0
:100CB0004FF400721A614FF4C8730093009B2BB17C
:100CC000009B013B0093009B002BF9D14FF4406344
:100CD000C4F201034FF000721A614FF4C87301931C
:100CE000019B2BB1019B013B0193019B002BF9D18F
:100CF0004FF440634FF07042C4F201031A61C2071F
:100D000044BF4FF480521A6100F00203DBB233B1EA
:100D10004FF44063C4F201034FF400521A6100F033
:100D20000403DBB233B14FF44063C4F201034FF468
:100D300080421A6100F00800C0B230B14FF4406345
:100D4000C4F201034FF400421A614FF44063C4F24D
:100D500001034FF400721A614FF4C8730293029BAF
:100D60002BB1029B013B0293029B002BF9D14FF464
:100D70004063C4F201034FF000721A614FF4C8736C
:100D80000393039B2BB1039B013B0393039B002B1A
:100D9000F9D104B0704700BF01200021FFF74EBF1A
:100DA00010B50446007830B10121FFF747FF14F871
:100DB000010F0028F8D110BD21B140F0C000002182
:100DC000FFF73CBF40F08000FFF738BFC00040F0A5
:100DD000400038B500F0F8000D460021FFF72EFF67
:100DE00000240121285D6418FFF728FF082CF8D1A2
:100DF00080200021BDE83840FFF720BF00B54FF448
:100E00004063C4F201035A6887B042F0885242F04E
:100E100011125A601A681A605A6822F06E4222F063
:100E2000EE125A601A681A604FF4C8730193019B5E
:100E30002BB1019B013B0193019B002BF9D14FF496
:100E4000C8730293029B2BB1029B013B0293029B4E
:100E5000002BF9D14FF4C8730393039B2BB1039B71
:100E6000013B0393039B002BF9D1FFF765FE4FF481
:100E7000C8730493049B2BB1049B013B0493049B14
:100E8000002BF9D14FF4C8730593059B2BB1059B3B
:100E9000013B0593059B002BF9D10C200021FFF7A6
:100EA000CDFEFFF779FF06200021FFF7C7FE07B050
:100EB00000BD00BF10B5012186B04FF40010FFF750
:100EC0008BFB09200121FFF779FBC023ADF804302B
:100ED0004FF44060032301A98DF80630C4F20100ED
:100EE0001C234FF480448DF80730FFF70DFA06A954
:100EF00049F6404341F8103D20040023ADF80C3082
:100F0000ADF8103040F4A8404FF48063ADF80E40C7
:100F1000ADF81230ADF81440FFF75AFA200440F44F
:100F2000A8400121FFF7C4FA06B010BD4FF4A84154
:100F3000C4F200010B889BB243F480730B808A8A51
:100F40004FF4A843D207C4F20003F8D5420042F0A0
:100F50000102D2B2998A19461A828A8A4FF4A843AA
:100F600002F0020292B2C4F20003002AF5D01A88FD
:100F7000194622F480621204120C1A809A8A1A8B83
:100F80001A8892B242F400721A808A8A4FF4A843F7
:100F900002F0400292B2C4F20003002AF5D0188A8F
:100FA000C0B2704710B44FF4A844C4F200042388C0
:100FB0009BB243F480732380A28A4FF4A843D207E4
:100FC000C4F20003F8D54000C0B29A8A1C461882C9
:100FD000A28A4FF4A84302F0020292B2C4F20003C4
:100FE000002AF5D09A8A18461A8B1982828A4FF401
:100FF000A84302F0040292B2C4F20003002AF5D022
:101000009A8A1A8892B242F400721A8010BC704711
:1010100030B44FF4A845C4F200052B889BB243F4CA
:1010200080732B80AC8A4FF4A843E407C4F200031A
:10103000F8D54000C0B29C8A1C461882A08A4FF4A2
:10104000A84300F0020080B2C4F200030028F5D0EB
:10105000988A1C8B18461982818A4FF4A84301F0A4
:10106000040189B2C4F200030029F5D0998A194617
:101070001A828A8A4FF4A84302F0040292B2C4F2A0
:101080000003002AF5D09A8A1A8892B242F40072BC
:101090001A8030BC704700BF0120014608B5FFF739
:1010A0008DFA0023C4F2010399684FF4806241F085
:1010B000010199609968C4F2010241F01001996040
:1010C00098684FF4614140F4807098609868CEF25F
:1010D000000140F480509860D86840F00100D8606A
:1010E000136843F01F031360936843F01F0393607A
:1010F000D36843F01F03D36040230B6080230B6051
:101100004FF480730B604FF400730B604FF48063F7
:101110000B6008BD4FF48052C4F2020290694FF494
:10112000805343F23331C4F2010340F01000C8F69B
:10113000330190611960DA6822F0C002DA6070470A
:1011400010B44FF48051C4F202018A694FF4406335
:1011500042F00802C4F201038A611A68002022F0FA
:1011600003021A601A68C4F2010022F00C021A602D
:101170001C684FF4006244F008041C601C69C4F24F
:10118000010244F001041C611C6824F030041C605E
:101190001C6824F0C0041C601C6844F080041C60BF
:1011A0001C6944F002041C611C6824F440741C6037
:1011B0001C6824F440641C601C6844F400641C60D7
:1011C0001C6944F004041C618C6944F001048C61C6
:1011D000416841F000714160196821F44051196083
:1011E000196821F440411960196841F400411960FF
:1011F000196941F008011961196821F44031196039
:10120000196821F440211960196841F4002119601E
:10121000196941F010011961596821F00401596000
:10122000596841F002015960596821F04001596044
:10123000596841F020015960596821F480215960B2
:10124000596841F400315960596821F480015960AE
:10125000596841F400115960596821F08061596062
:10126000596841F000715960596821F08041596016
:10127000596841F000515960136823F0706313609E
:10128000136843F000731360D36843F04003D360E6
:1012900010BC70474FF48052C4F2020291694FF4BF
:1012A000006341F004019161C4F201031A6822F065
:1012B0000C021A601A6842F004021A601A6842F0BE
:1012C00003021A601A6822F0C0021A601A6842F01B
:1012D00040021A601A6842F030021A601A6822F45A
:1012E00040621A601A6842F480721A60DA6822F06A
:1012F0000402DA601A6822F440421A601A6842F462
:1013000080521A60DA6822F00802DA60704700BF83
:101310008242F8B54C4B01DA02241C708A4233DD5C
:1013200001241C700818B2EB600F40F3898001247F
:101330001C70464B464D1A78A24236D000222A70C5
:101340001C70012C5AD034D24FF4C4714FF4C670C3
:101350004FF4C0744FF4C2720023C4F22122C4F2CD
:101360002121C4F22120C4F221240B60036019461C
:10137000236008201360FFF71FFD3648FFF710FDBC
:101380002B7801332B70F8BD1C782F4D012CC9D060
:10139000022CCED12D4B0818B2EB600F1A78A8BFE3
:1013A0000024A2422C702A4DC8D12B78002BC8D023
:1013B000F8BD022CFCD14FF4C4744FF4C6704FF446
:1013C000C0724FF4C2760023C4F22122C4F2212459
:1013D000C4F22120C4F221262360194603600127AC
:1013E000136008203360FFF7E7FC37601A48FFF707
:1013F000D7FC27602B78DB192B70F8BD4FF4C47134
:101400004FF4C6764FF4C0774FF4C2720023C4F293
:101410002122C4F22121C4F22126C4F221270B602B
:101420000820336019463B601360FFF7C5FC3C6041
:101430000A48FFF7B5FC34602B7801332B70F8BDF8
:1014400000241C7075E700BFF9000020FB0000209D
:10145000FA000020B41A0008C41A0008BC1A0008D8
:10146000704700BFFEE700BFFEE700BFFEE700BF1A
:10147000FEE700BF704700BF704700BF704700BF66
:10148000704700BF4FF48051C4F20201C8694FF0A9
:101490008043002240F00100C8619A841A829A8039
:1014A0001A8040F2CF721A85A2F57A729A851A884C
:1014B0004FF4614122F010021204120C1A801A88B3
:1014C000CEF2000122F002021204120C1A801A88D5
:1014D00022F440721204120C1A801A8822F0800240
:1014E0001204120C1A801A8822F008021204120C3C
:1014F0001A809A8992B242F001029A811A8892B2B5
:1015000042F004021A809A8A22F001021204120C9C
:101510009A821A8892B242F001021A804FF08053E8
:101520000B6070474FF48051C4F20201C8694FF458
:101530008063C4F20003002240F00200C8619A8474
:101540001A829A801A8040F2CF721A8563229A8595
:101550001A884FF4614122F010021204120C1A8012
:101560001A88CEF2000122F002021204120C1A8034
:101570001A8822F440721204120C1A801A8822F07F
:1015800080021204120C1A801A8822F00802120437
:10159000120C1A809A8992B242F001029A811A883A
:1015A00092B242F004021A809A8A22F001021204D6
:1015B000120C9A821A8892B242F001021A804FF0FD
:1015C00000530B60704700BF08B54FF08042138A8C
:1015D000DB0705D5138A23F001031B041B0C1382C0
:1015E00000210120FFF7E8FBFFF718F9044B1880F2
:1015F000FFF7AEF8034B1A8801321A8008BD00BF0E
:101600004E000020FC00002038B5FEF771FF4FF4BB
:101610008063C4F200031A8AD20705D51A8A22F021
:1016200001021204120C1A82694B1A781AB1694A23
:101630001178002965D1684D2B78032B03D8DFE89A
:1016400003F0351C4809654C2388FF2B12D9102361
:10165000238038BD4FF43040604C02226049C0F610
:101660000000FFF73BFA23885E490022FF2B2A7017
:101670000A70ECD80133238038BD594D2846FFF756
:10168000E3F9002857D001200146FFF795FBB5F993
:101690000000FFF75DF82B88B5F902101AB29142ED
:1016A000D1DA4E4C4E4A53802388CEE74E4B4B4CFA
:1016B000B3F90020238812F57A7FC6DD0A2BD9D929
:1016C000474BB3F90000B3F90210FFF721FE23885E
:1016D000BBE74648FFF7B8F9002844D0404D012148
:1016E0000920FFF769FBB5F90200FFF731F86B88B5
:1016F000B5F900101AB29142A5DD384C2B80238831
:10170000A3E70120364C014600251D701570FFF738
:1017100053FBB4F90000FFF71BF82F4D09200121FE
:10172000FFF74AFBB4F90200FFF712F82B780133F8
:10173000DBB22B7081E72846FFF758F90028A2D1C9
:10174000264C238803F00702042A33D0002A7FF4B2
:101750007CAF01200146FFF72FFBB5F90000FEF733
:10176000F7FF238871E72148FFF740F90028B5D13A
:101770001A4C238803F00702042A0DD0002A7FF4B4
:1017800064AF09200121FFF717FB154BB3F90200E5
:10179000FEF7DEFF238858E709200121FFF70CFB45
:1017A0001348FFF7FDFA238803F00702002A7FF4AD
:1017B0004CAFE6E701200146FFF7FEFA0C48FFF7C1
:1017C000EFFA238803F00702002A7FF43EAFC0E758
:1017D000F6000020EC00002000010020FE000020A8
:1017E00004010020F90000204E0000200601002026
:1017F000CC1A00084FF48051C4F202018B694FF4F7
:10180000006243F004038B618B69C4F2010243F070
:1018100001038B6188694FF4605340F48040886114
:101820005168C4F2010341F0300151605168002059
:1018300021F0C0015160516841F0800151609A89E6
:1018400092B242F00C029A8140221A811A8992B215
:1018500042F005021A819A8992B242F400529A81AA
:10186000704700BF0649074A074B9A42BEBF51F86E
:10187000040B42F8040BF8E704488047044800478B
:10188000E81A000800000020B8000020191900081C
:10189000750100081E491F4A002301E041F8043B7E
:1018A0009142FBD3FEF7B8FEFEE7FEE7FEE7FEE758
:1018B000FEE7FEE7FEE7FEE7FEE7FEE7FEE7FEE700
:1018C000FEE7FEE7FEE7FEE7FEE7FEE7FEE7FEE7F0
:1018D000FEE7FEE7FEE7FEE7FEE7FEE7FEE7FEE7E0
:1018E000FEE7FEE7FEE7FEE7FEE7FEE7FEE7FEE7D0
:1018F000FEE7FEE7FEE7FEE7FEE7FEE7FEE7FEE7C0
:10190000FEE7FEE7FEE7FEE7FEE7FEE7FEE7FEE7AF
:10191000B80000208E0100204FF48053C4F202036F
:101920001968002241F0010119605968CFF6FF02E1
:101930000A405A601A68002122F0847222F4803230
:101940001A601A6882B022F480221A6058681A4617
:1019500020F4FE0058604FF41F009860D962009197
:101960000191196841F48031196003E0009BB3F5DF
:10197000A06F09D0136803F400330193009B013377
:101980000093019B002BF1D04FF48053C4F202036B
:101990001B6813F4003308BF019301D001230193A6
:1019A000019B012B08D04FF46D43CEF200034FF0A2
:1019B00000629A6002B070474FF48053C4F2020391
:1019C0005A6819465A605A685A605A685A605A6882
:1019D00022F47C125A605A6842F498125A601A68CB
:1019E00042F080721A600A684FF480539201C4F288
:1019F0000203F8D559681A4621F003015960596865
:101A000041F002015960536803F00C03082BFAD12E
:101A1000C9E700BF08B5074B044613B10021AFF377
:101A20000080054B1868836A03B19847204600F090
:101A300033F800BF00000000D81A000870B50E4B44
:101A40000E4D0024ED1AAD101E4603E056F824207A
:101A500090470134AC42F9D100F020F8084D094B11
:101A60000024ED1AAD101E4603E056F824209047DE
:101A70000134AC42F9D170BDB0000020B0000020AC
:101A8000B4000020B00000208218034601E003F8F3
:101A9000011B9342FBD17047FEE700BFF8B500BFC2
:101AA000F8BC08BC9E467047F8B500BFF8BC08BC3F
:101AB0009E46704753746F7070656400436F6F6C1F
:101AC000696E67005761726D696E67002020202083
:101AD0002020000043000000500000200000000013
:081AE00094E6FF7F0100000005
:101AE80002040608000000000102030401020304C6
:101AF8000607080904060406040E0E041818001C3C
:101B080010101C00000E1515000E1515141C1414C9
:101B180003050306000000111214181F1F181412E1
:101B2800110000001204120812001E0C080818FC0C
:101B3800000000000000000000000000000000009D
:101B4800000000000000000000000000000000008D
:101B5800D41A000800000000000000000000000087
:101B6800000000000000000000000000000000006D
:101B7800000000000000000000000000000000005D
:101B8800000000000000000000000000000000004D
:081B98004501000821010008CD
:0400000508000000EF
:00000001FF
