:020000040800F2
:1000000000200020F11400085511000859110008C3
:100010005D11000861110008651100080000000072
:10002000000000000000000000000000691100084E
:100030006D11000800000000711100087511000822
:100040004B1500084D1500084F1500085115000804
:10005000531500085515000869050008A505000896
:10006000C5050008090600084506000861150008D6
:100070006315000865150008671500086915000874
:100080006B1500086D1500086F15000800000000D2
:1000900000000000000000000000000071150008D2
:1000A0007315000875150008771500087915000804
:1000B000951200086D1200087F15000881150008D0
:1000C00083150008851500088715000889150008A4
:1000D0008B1500088D1500088F1500089115000874
:1000E00093150008951500089715000800000000FA
:1000F0000000000000000000000000000000000000
:1001000000000000000000000000000000000000EF
:100110000000000000000000991500089B15000871
:1001200010B5054C237833B9044B13B10448AFF331
:1001300000800123237010BDB000002000000000EB
:100140006817000808B5064B1BB106480649AFF30F
:1001500000800648036813B1054B03B1984708BDFA
:100160000000000068170008B4000020B000002064
:1001700000000000154B002B08BF134B9D46A3F554
:10018000803A00218B460F461348144A121A01F098
:10019000C1FA0F4B002B00D098470E4B002B00D01C
:1001A00098470020002104000D000D48002802D0CF
:1001B0000C48AFF3008001F087FA2000290000F01E
:1001C000B1F801F06DFA00BF000008000020002027
:1001D0000000000000000000B0000020000100202E
:1001E00000000000000000004FF4005340F2231113
:1001F00048F6AB12C4F20203C4F26751CCF6EF52D8
:1002000059605A60704700BF4FF40053C4F20203B4
:100210001A6942F080021A61704700BF4FF4005320
:10022000C4F20203D86070474FF40053C4F20203D3
:10023000DA68D2070BD4DA68500701D5022070477C
:10024000DB6813F0100F0CBF04200320704701205F
:10025000704700BF10B50446FFF7E6FF411E4B4252
:100260004B41002C08BF002363B1FFF7DDFF013CC9
:100270000CBF00230123012814BF002303F0010356
:10028000002BF2D1002C08BF052010BD70B504462C
:100290004FF400500D46FFF7DDFF042800D070BD7D
:1002A0004FF40056C4F2020633694FF4005043F095
:1002B000010333612580FFF7CDFF326941F6FE73FC
:1002C0001340336170BD00BF38B505464FF4302090
:1002D000FFF7C0FF042800D038BD4FF40054C4F22B
:1002E000020423694FF4302043F002032361656167
:1002F000236943F040032361FFF7ACFF226941F615
:10030000FD731340236138BD4FF48053C4F20203E0
:100310009A6919B922EA0000986170471043986100
:10032000704700BFF8B54FF48053C4F202031A6857
:10033000194642F001021A600A684FF4805392078E
:10034000C4F20203F8D55A68364C22F003025A6010
:100350005A685A605A6822F0F0025A605A6842F0AD
:1003600090025A6000F014FE00F03EFD00F052FDD5
:1003700000F0FCFC00F050FF00F062FF01F080F89C
:1003800000F0D0F900F052F800F038FB208000F0C7
:100390003DFB60800020014600F080FC0020012130
:1003A00000F0BEFB0020012100F078FC01210420B8
:1003B00000F0B6FB00F022FB00F070F808200121ED
:1003C00000F06CFC0121052000F0AAFB00F01EFBF0
:1003D00000F064F800F042FA4FF400630022C4F227
:1003E00000039A8440F2DD32998C89B29142FBD9A4
:1003F00000F0B4FA0C4E80B2308000F0BDFE4FF435
:100400000064C4F20004002740F2DD3500F026FA53
:10041000A784A38C9BB2AB42FBD900F09FFA80B2B9
:100420003080F3E7FC0000204400002008B500F015
:1004300057FC40F200010020C2F2000100F038FC3D
:1004400040F208010120C2F2000100F031FC40F24C
:1004500010010220C2F2000100F02AFC40F2180153
:100460000320C2F2000100F023FC40F2200104202E
:10047000C2F2000100F01CFC40F228010520C2F28B
:10048000000100F015FC40F230010620C2F200012C
:1004900000F00EFCBDE8084000F0F0BBF8B548F2F3
:1004A0001F5480EAE072A2EBE072C5F2EB1444F64E
:1004B000D35584FB02C6C1F2620585FB0235D31712
:1004C0006421C3EB661601FB1626C3EBA5154FF49A
:1004D0007A7707FB152746F26761C6F2666181FBF2
:1004E00002CE81FB06C184FB07C4F617FF17C3EBDE
:1004F000AE03C6EBA1011A4EC7EB6414303503EB13
:100500008307184B3034A2EB4707EDB232602E223E
:1005100030313037E4B2DA700122302D1D705C705A
:1005200099701F715A7109D0002290425A711C466D
:100530000EDB204600F0A6FB2046F8BD2022302C22
:100540009A7108D00022DA715C1C0028F1DA013CB3
:100550002D232370EDE7DA7100221A729C1CF4E758
:10056000E0000020CC0000204FF44063C4F20103FF
:100570009B680122DB074CBF074B084B1A704FF4F6
:100580008063C4F201035969054A41F001015961D0
:100590001378013313707047EE000020E400002050
:1005A000E90000204FF48062C4F20102516940F278
:1005B000E80341F002015161C2F200031A780132EE
:1005C0001A70704708B54FF44063C4F201039B688A
:1005D000012259074CBF094B094B64201A7000F0E7
:1005E000BBF84FF48063C4F201035969054A41F036
:1005F0000401596113780133137008BDEB0000202A
:10060000E5000020EC0000204FF44063C4F2010339
:100610009B68012218074CBF074B084B1A704FF418
:100620008063C4F201035969054A41F00801596128
:100630001378013313707047EF000020EA000020A8
:10064000ED00002008B500F085F84FF48062C4F298
:100650000102516940F2E60341F010015161C2F21A
:1006600000031A7801321A7008BD00BF70B4124935
:1006700002460B78048811480BB903785BB9104D1A
:1006800008262E700F4D002303702B700B70184638
:10069000148070BC70470B49087828B1084B197852
:1006A00039B101391970F3E701202418A4B2087098
:1006B000EEE70134A4B2EBE7EF000020EA000020EF
:1006C00038000020E700002070B4124902460B7881
:1006D000048811480BB903785BB9104D08262E70B9
:1006E0000F4D002303702B700B701846148070BCE4
:1006F00070470B49087828B1084B197839B101398E
:100700001970F3E70120013CA4B20870EEE7013C48
:10071000A4B2EBE7EB000020E50000203900002048
:10072000F00000204FF48053C4F2020399694FF4A3
:10073000E84241F004019961D969C4F2000241F034
:100740000051D961136843F0010313603023136132
:10075000704700BF704700BF704700BF10B4154B13
:100760001C68A368184202D1022010BC7047E268DE
:10077000114B22EA00021B68E260002240F2DF1106
:100780009A849A8C92B28A42FBD9E26840F225217F
:100790000243E2609A8C92B28A42FBD9A26840F28C
:1007A000BF3110409A8C92B28A42FBD9003018BFF8
:1007B0000120DAE73C0000204000002010B40D4B7F
:1007C0000D4A1B68146800229A84E26822EA01023A
:1007D000E2609A8C92B2012AFBD910B1E2680A4316
:1007E000E2609A8C92B23B2AFBD9E3681943E1603C
:1007F00010BC7047400000203C0000200D4B0E4A0A
:100800001B68116800229A84CA6822EA0002CA6042
:100810009A8C92B2012AFBD9CA680243CA609A8CA8
:1008200092B20E2AFBD98A6810409A8C92B23B2A67
:10083000FBD97047400000203C000020F8B50F466F
:1008400006460024012505FA04F0394630400134FB
:10085000FFF7B4FF082CF6D1F8BD00BF70B50D4D01
:100860000126287806FA00F080B2FFF777FF0446E9
:1008700068B92978CC2006FA01F189B2FFF7DEFFCA
:100880002B78442006FA03F189B2FFF7D7FF204600
:1008900070BD00BF3A000020F8B50024064625468A
:1008A00001273046FFF7AAFF18B107FA04F31D43EA
:1008B000EDB20134082CF4D12846F8BD2DE9F04101
:1008C000254D01272B78064607FA03F080B2FFF783
:1008D00045FF044610B12046BDE8F0812978CC20C0
:1008E00007FA01F189B2FFF7A9FF2978BE2007FABC
:1008F00001F189B2FFF7A2FFA046287807FA00F0BD
:1009000080B2FFF7C9FF082306F8080080EA040256
:10091000D20745BF84F01804C4F34604C4F3470467
:1009200044F08004013B13F0FF03C0F34700EDD116
:1009300008F10108B8F1080FDFD12B78012000FA87
:1009400003F080B2FFF7A8FF844214BF0324002401
:100950002046BDE8F08100BF3A00002000B583B01A
:100960006846FFF7ABFF18B14FF4A06003B000BDBD
:100970009DF800309DF801101A0942EA0112D2B226
:1009800050B2002803F00F030FDB00EB80004000A3
:100990005BB203EB83035B0003F10F0233EA230333
:1009A00028BF134600EB2310E0E7D24363F00F03A8
:1009B00050B200EB80005B424000DBB2E8E700BFD2
:1009C000F8B5174604460D46FFF70EFC3520FFF735
:1009D00025FC7E1E2046FFF777FCB6B257B1A31C5C
:1009E00003EB46062D1B2046295B0234FFF74EFC25
:1009F000B442F8D1BDE8F840FFF706BC4FF43043ED
:100A0000C0F60003B3F90000704700BF4BF20203C9
:100A1000C0F60003B3F90000704700BF4FF4406315
:100A2000C4F201034FF073421A614FF400521A618D
:100A30004FF400721A6186B04FF4C8730093009BA4
:100A40002BB1009B013B0093009B002BF9D14FF48D
:100A50004063C4F201034FF000721A614FF4C8738F
:100A60000193019B2BB1019B013B0193019B002B47
:100A7000F9D14FF44063C4F201034FF073421A619D
:100A80004FF400521A614FF400721A614FF4C873A8
:100A90000293029B2BB1029B013B0293029B002B12
:100AA000F9D14FF44063C4F201034FF000721A61B0
:100AB0004FF4C8730393039B2BB1039B013B039338
:100AC000039B002BF9D14FF44063C4F201034FF0B4
:100AD00073421A614FF400421A614FF400721A61B6
:100AE0004FF4C8730493049B2BB1049B013B049304
:100AF000049B002BF9D14FF44063C4F201034FF083
:100B000000721A614FF4C8730593059B2BB1059BC6
:100B1000013B0593059B002BF9D106B0704700BF40
:100B20004FF44063C4F201034FF0734284B01A6182
:100B300011B14FF480721A6100F01003DBB233B1CF
:100B40004FF44063C4F201034FF480521A6100F085
:100B50002003DBB233B14FF44063C4F201034FF41E
:100B600000521A6100F04003DBB233B14FF440632E
:100B7000C4F201034FF480421A61010641BF4FF4F1
:100B80004063C4F201034FF400421A614FF4406322
:100B9000C4F201034FF400721A614FF4C87300935A
:100BA000009B2BB1009B013B0093009B002BF9D1D4
:100BB0004FF44063C4F201034FF000721A614FF426
:100BC000C8730193019B2BB1019B013B0193019BD6
:100BD000002BF9D14FF440634FF07042C4F201038F
:100BE0001A61C20744BF4FF480521A6100F0020339
:100BF000DBB233B14FF44063C4F201034FF400524F
:100C00001A6100F00403DBB233B14FF44063C4F265
:100C100001034FF480421A6100F00800C0B230B105
:100C20004FF44063C4F201034FF400421A614FF4E1
:100C30004063C4F201034FF400721A614FF4C873A9
:100C40000293029B2BB1029B013B0293029B002B60
:100C5000F9D14FF44063C4F201034FF000721A61FE
:100C60004FF4C8730393039B2BB1039B013B039386
:100C7000039B002BF9D104B0704700BF0120002175
:100C8000FFF74EBF10B50446007830B10121FFF7E1
:100C900047FF14F8010F0028F8D110BD21B140F032
:100CA000C0000021FFF73CBF40F08000FFF738BFD5
:100CB000C00040F0400038B500F0F8000D460021BB
:100CC000FFF72EFF00240121285D6418FFF728FF9D
:100CD000082CF8D180200021BDE83840FFF720BF64
:100CE00000B54FF44063C4F201035A6885B042F086
:100CF000885242F011125A601A681A605A6822F03B
:100D00006E4222F0EE125A601A681A604FF4C873ED
:100D10000193019B2BB1019B013B0193019B002B94
:100D2000F9D14FF4C8730293029B2BB1029B013B94
:100D30000293029B002BF9D14FF4C8730393039BDA
:100D40002BB1039B013B0393039B002BF9D1FFF7CE
:100D500065FE0C200021FFF7E3FEFFF78FFF062062
:100D60000021FFF7DDFE05B000BD00BF01200146F8
:100D700008B5FFF7C9FA0023C4F2010399684FF4DC
:100D8000806241F0010199609968C4F2010241F06A
:100D90001001996098684FF4614140F48070986048
:100DA0009868CEF2000140F480509860D86840F016
:100DB0000100D860136843F01F031360936843F089
:100DC0001F039360D36843F01F03D36040230B607D
:100DD00080230B604FF480730B604FF400730B6043
:100DE0004FF480630B6008BD4FF48052C4F20202DE
:100DF00090694FF4805343F23331C4F2010340F061
:100E00001000C8F6330190611960DA6822F0C00260
:100E1000DA60704710B44FF48051C4F202018A695D
:100E20004FF4406342F00802C4F201038A611A6879
:100E3000002022F003021A601A68C4F2010022F0B6
:100E40000C021A601C684FF4006244F008041C6035
:100E50001C69C4F2010244F001041C611C6824F006
:100E600030041C601C6824F0C0041C601C6844F042
:100E700080041C601C6944F002041C611C6824F49A
:100E800040741C601C6824F440641C601C6844F4BA
:100E900000641C601C6944F004041C615C6824F458
:100EA00040745C605C6824F440645C605C6844F49A
:100EB00000745C605C6844F480645C60DC6844F4EA
:100EC0008064DC608C6944F001048C61416841F00D
:100ED00000714160196821F440511960196821F4CA
:100EE00040411960196841F400411960196941F0E5
:100EF00008011961196821F440311960196821F459
:100F000040211960196841F400211960196941F004
:100F100010011961596821F004015960596841F0C4
:100F200002015960596821F040015960596841F047
:100F300020015960596821F480215960596841F4B1
:100F400000315960596821F480015960596841F4B1
:100F500000115960596821F080615960596841F069
:100F600000715960596821F080415960596841F019
:100F700000515960136823F070631360136843F0E5
:100F800000731360D36843F04003D36010BC704714
:100F90004FF48052C4F2020291694FF4006341F0B1
:100FA00004019161C4F201031A6822F00C021A6074
:100FB0001A6842F004021A601A6842F003021A60CA
:100FC0001A6822F0C0021A601A6842F040021A60E1
:100FD0001A6842F030021A601A6822F440621A60FD
:100FE0001A6842F480721A60DA6822F00402DA6049
:100FF0001A6822F440421A601A6842F480521A6059
:10100000DA6822F00802DA60704700BF8242F8B561
:101010004A4B01DA02241C708A4231DD0121197029
:10102000824240F3878001241C70454B454D1A785D
:10103000A24234D000222A701C70012C58D032D227
:101040004FF4C4714FF4C6704FF4C0744FF4C272C1
:101050000023C4F22122C4F22121C4F22120C4F2CF
:1010600021240B6003601946236008201360FFF7FA
:1010700015FE3548FFF706FE2B7801332B70F8BDBF
:101080001C782E4D012CCBD0022CCED12C4B8A4279
:101090001A78A8BF0024A2422C702A4DCAD12B78FE
:1010A000002BCAD0F8BD022CFCD14FF4C4744FF40D
:1010B000C6704FF4C0724FF4C2760023C4F22122EE
:1010C000C4F22124C4F22120C4F22126236019464F
:1010D00003600127136008203360FFF7DFFD3760EE
:1010E0001A48FFF7CFFD27602B78DB192B70F8BD6E
:1010F0004FF4C4714FF4C6764FF4C0774FF4C27208
:101100000023C4F22122C4F22121C4F22126C4F218
:1011100021270B600820336019463B601360FFF7FE
:10112000BDFD3C600A48FFF7ADFD34602B7801330C
:101130002B70F8BD00241C7077E700BFF100002081
:10114000F3000020F20000204017000850170008AC
:1011500048170008704700BFFEE700BFFEE700BF6A
:10116000FEE700BFFEE700BF704700BF704700BF4B
:10117000704700BF704700BF4FF48051C4F20201B6
:10118000C8694FF08043002240F00100C8619A8492
:101190001A829A801A80F9221A854FF47A729A85F7
:1011A0001A884FF4614122F010021204120C1A80C6
:1011B0001A88CEF2000122F002021204120C1A80E8
:1011C0001A8822F440721204120C1A801A8822F033
:1011D00080021204120C1A801A8822F008021204EB
:1011E000120C1A809A8992B242F001029A811A88EE
:1011F00092B242F004021A809A8A22F0010212048A
:10120000120C9A821A8892B242F001021A804FF0B0
:1012100080530B60704700BF4FF48052C4F202024B
:10122000D0694FF4806340F00200D061C4F2000343
:1012300001214FF47A7219859A851980704700BF91
:101240004FF48052C4F20202D1694FF4006341F0BE
:101250000401D161C4F2000340F2CF721A854FF449
:101260007A729A8501221A80704700BF4FF480631A
:10127000C4F200031A8AD20705D51A8A22F00102A5
:101280001204120C1A82024B1A8801321A8070471B
:10129000F800002038B54FF080431A8AD10705D5F1
:1012A0001A8A22F001021204120C1A826B4B1A786D
:1012B0001AB16B4A117800297ED16A4D6A4C218897
:1012C00011F003016FD02B78032B28D8DFE803F04F
:1012D0003F02542D654D2846FFF7F6F9002840F0EF
:1012E00084802846FFF7C2F900287ED1238803F0C6
:1012F0000702042A0AD101200146FFF7CFFC5C480F
:10130000FFF7C0FC584B1B8803F0070242B90120CD
:101310000146FFF7C3FCB5F90000FFF7BFF82388CB
:10132000FF2B11D91023238038BD4FF43040022207
:101330004E49C0F60000FFF743FB23884D490022C9
:10134000FF2B2A700A70EDD80133238038BD4A4A3A
:1013500013881BB213F57A7F2388E1DD0A2BF3D9BA
:10136000424B1288B3F90000B3F9021012B2FFF732
:101370004DFE3D4B1B88D3E74048FFF7A5F90028F9
:1013800045D03A4D01210920FFF788FCB5F902004C
:10139000FFF784F86B88B5F900101AB29142BEDDF0
:1013A0002B802388BCE70120FFF778FC324B18889C
:1013B00000B2FFF773F886E701202C4C01460025A8
:1013C0001D701570FFF76AFCB4F90000FFF766F8AE
:1013D000244D09200121FFF761FCB4F90200FFF759
:1013E0005DF82B7801332B7068E701200146FFF789
:1013F00055FCB5F90000FFF751F82B88B5F902103C
:101400001AB291428BDA194A5380238888E71B4825
:10141000FFF72CF90028B4D1238803F00702042A2F
:101420000DD0002A7FF47CAF09200121FFF736FCA4
:101430000E4BB3F90200FFF731F8238870E709205B
:101440000121FFF72BFC0A48FFF71CFC064B1B8809
:1014500003F00702002A7FF463AFE5E7EE00002007
:10146000E4000020F6000020F4000020FC00002032
:1014700058170008F100002044000020FE00002062
:101480004FF48051C4F202018B694FF4006243F0C3
:1014900004038B618B69C4F2010243F001038B6189
:1014A00088694FF4605340F4804088615168C4F209
:1014B000010341F0300151605168002021F0C0016A
:1014C0005160516841F0800151609A8992B242F0B6
:1014D0000C029A8140221A811A8992B242F00502C6
:1014E0001A819A8992B242F400529A81704700BFE1
:1014F0000649074A074B9A42BEBF51F8040B42F80F
:10150000040BF8E7044880470448004774170008B4
:1015100000000020B0000020A5150008750100089B
:101520001E491F4A002301E041F8043B9142FBD3CE
:10153000FEF7F8FEFEE7FEE7FEE7FEE7FEE7FEE762
:10154000FEE7FEE7FEE7FEE7FEE7FEE7FEE7FEE773
:10155000FEE7FEE7FEE7FEE7FEE7FEE7FEE7FEE763
:10156000FEE7FEE7FEE7FEE7FEE7FEE7FEE7FEE753
:10157000FEE7FEE7FEE7FEE7FEE7FEE7FEE7FEE743
:10158000FEE7FEE7FEE7FEE7FEE7FEE7FEE7FEE733
:10159000FEE7FEE7FEE7FEE7FEE7FEE7B00000201D
:1015A000000100204FF48053C4F2020319680022A6
:1015B00041F0010119605968CFF6FF020A405A60F4
:1015C0001A68002122F0847222F480321A601A68AC
:1015D00082B022F480221A6058681A4620F4FE0075
:1015E00058604FF41F009860D9620091019119680A
:1015F00041F48031196003E0009BB3F5A06F09D07E
:10160000136803F400330193009B01330093019BA3
:10161000002BF1D04FF48053C4F202031B6813F483
:10162000003308BF019301D001230193019B012BDB
:1016300008D04FF46D43CEF200034FF000629A6081
:1016400002B070474FF48053C4F202035A6819463F
:101650005A605A685A605A685A605A6822F47C1272
:101660005A605A6842F498125A601A6842F08072BE
:101670001A600A684FF480539201C4F20203F8D54D
:1016800059681A4621F003015960596841F0020176
:101690005960536803F00C03082BFAD1C9E700BF67
:1016A00008B5074B044613B10021AFF30080054B8A
:1016B0001868836A03B19847204600F033F800BFEA
:1016C000000000006417000870B50E4B0E4D00249A
:1016D000ED1AAD101E4603E056F824209047013461
:1016E000AC42F9D100F020F8084D094B0024ED1A66
:1016F000AD101E4603E056F8242090470134AC425A
:10170000F9D170BDA8000020A8000020AC00002086
:10171000A80000208218034601E003F8011B934251
:10172000FBD17047FEE700BFF8B500BFF8BC08BCAE
:101730009E467047F8B500BFF8BC08BC9E4670478F
:1017400053746F7070656400436F6F6C696E6700EF
:101750005761726D696E67002020202020200000F4
:0C176000430000004800002000000000D2
:08176C0008EAFF7F0100000004
:1017740004060406040E0E041818001C10101C00A5
:10178400000E1515000E1515141C1414030503067C
:10179400000000111214181F1F1814121100000069
:1017A4001204120812001E0C08080A00000C014062
:1017B4000004004018FC00000000000000000000CD
:1017C4000000000000000000000000000000000015
:1017D4000000000000000000601700080000000086
:1017E40000000000000000000000000000000000F5
:1017F40000000000000000000000000000000000E5
:1018040000000000000000000000000000000000D4
:10181400000000000000000045010008210100084C
:0400000508000000EF
:00000001FF
